:020000040800F2
:1000000000000320D54B0008113300081F330008FF
:10001000253300082B3300083133000800000000AE
:10002000000000000000000000000000373300085E
:100030004533000800000000533300086133000816
:10004000294C0008294C0008294C00086D33000891
:10005000294C0008294C0008FB330008093400082B
:10006000294C0008294C0008ED330008294C0008F1
:10007000294C0008294C000879330008294C000855
:10008000294C0008294C0008294C0008294C00087C
:10009000294C0008294C0008294C0008294C00086C
:1000A000294C0008294C0008294C0008294C00085C
:1000B000294C0008294C0008294C0008294C00084C
:1000C000294C0008294C0008294C0008294C00083C
:1000D0008D330008A1330008294C0008294C000882
:1000E000294C0008294C0008294C0008294C00081C
:1000F000B5330008C1330008CD330008294C00088F
:10010000294C0008294C0008294C0008294C0008FB
:10011000294C0008294C0008294C0008294C0008EB
:10012000294C0008294C0008D9330008294C000844
:0C013000294C0008294C0008294C00084C
:1001400010B5054C237833B9044B13B10448AFF311
:1001500000800123237010BD640200200000000015
:100160009C09010808B5034B1BB103490348AFF3D1
:10017000008008BD00000000680200209C09010802
:1001800010F8012B11F8013B012A28BF9A42F7D041
:10019000D01A7047000000000000000000000000BE
:1001A00001F0FF01102A2BDB10F0070F08D010F828
:1001B000013B013A8B422DD010F0070F42B3F6D12C
:1001C000F0B441EA012141EA014122F007047FF045
:1001D00000070023F0E80256083C85EA010586EA9C
:1001E000010685FA47F5A3FA87F586FA47F6A5FAD8
:1001F00087F68EB9EED1F0BC01F0FF0102F00702E4
:1002000032B110F8013B013A83EA010313B1F8D18E
:100210000020704701387047002D06BF354603386F
:10022000073815F0010F07D1013015F4807F02BFA8
:10023000013015F4C03F0130F0BC0138704700BFF9
:10024000034613F8012B002AFBD1181A0138704716
:1002500081F0004102E000BF83F0004330B54FEA77
:1002600041044FEA430594EA050F08BF90EA020FE4
:100270001FBF54EA000C55EA020C7FEA645C7FEA77
:10028000655C00F0E2804FEA5454D4EB5555B8BF9A
:100290006D420CDD2C4480EA020281EA030382EA0B
:1002A000000083EA010180EA020281EA0303362D9D
:1002B00088BF30BD11F0004F4FEA01314FF4801C70
:1002C0004CEA113102D0404261EB410113F0004F82
:1002D0004FEA03334CEA133302D0524263EB430339
:1002E00094EA050F00F0A780A4F10104D5F1200ED7
:1002F0000DDB02FA0EFC22FA05F2801841F1000132
:1003000003FA0EF2801843FA05F359410EE0A5F105
:1003100020050EF1200E012A03FA0EFC28BF4CF036
:10032000020C43FA05F3C01851EBE37101F00045EC
:1003300007D54FF0000EDCF1000C7EEB00006EEBF9
:100340000101B1F5801F1BD3B1F5001F0CD3490883
:100350005FEA30004FEA3C0C04F101044FEA4452DA
:1003600012F5800F80F09A80BCF1004F08BF5FEA61
:10037000500C50F1000041EB045141EA050130BD41
:100380005FEA4C0C404141EB0101013C28BFB1F553
:10039000801FE9D291F0000F04BF01460020B1FA9E
:1003A00081F308BF2033A3F10B03B3F120020CDA71
:1003B0000C3208DD02F1140CC2F10C0201FA0CF04F
:1003C00021FA02F10CE002F11402D8BFC2F1200CB4
:1003D00001FA02F120FA0CFCDCBF41EA0C0190406A
:1003E000E41AA2BF01EB0451294330BD6FEA0404B3
:1003F0001F3C1CDA0C340EDC04F11404C4F120029E
:1004000020FA04F001FA02F340EA030021FA04F3AF
:1004100045EA030130BDC4F10C04C4F1200220FA06
:1004200002F001FA04F340EA0300294630BD21FA44
:1004300004F0294630BD94F0000F83F4801306BF0A
:1004400081F480110134013D4EE77FEA645C18BFFE
:100450007FEA655C29D094EA050F08BF90EA020F95
:1004600005D054EA000C04BF1946104630BD91EA8D
:10047000030F1EBF0021002030BD5FEA545C05D190
:100480004000494128BF41F0004130BD14F58004CF
:100490003CBF01F5801130BD01F0004545F0FE4143
:1004A00041F470014FF0000030BD7FEA645C1ABF78
:1004B000194610467FEA655C1CBF0B46024650EAAF
:1004C000013406BF52EA033591EA030F41F40021DB
:1004D00030BD00BF90F0000F04BF0021704730B561
:1004E0004FF4806404F132044FF000054FF0000136
:1004F00050E700BF90F0000F04BF0021704730B5F7
:100500004FF4806404F1320410F0004548BF4042CB
:100510004FF000013EE700BF42004FEAE2014FEA20
:1005200031014FEA02701FBF12F07F4393F07F4FFB
:1005300081F06051704732F07F4208BF704793F0FE
:100540007F4F04BF41F40021704730B54FF4607411
:1005500001F0004521F000411CE700BF50EA010214
:1005600008BF704730B54FF000050AE050EA0102BD
:1005700008BF704730B511F0004502D5404261EB2D
:1005800041014FF4806404F132045FEA915C3FF46E
:10059000D8AE4FF003025FEADC0C18BF03325FEA0B
:1005A000DC0C18BF033202EBDC02C2F1200300FABC
:1005B00003FC20FA02F001FA03FE40EA0E0021FAE1
:1005C00002F11444BDE600BF70B54FF0FF0C4CF4CF
:1005D000E06C1CEA11541DBF1CEA135594EA0C0F81
:1005E00095EA0C0F00F0DEF82C4481EA030621EABC
:1005F0004C5123EA4C5350EA013518BF52EA0335F7
:1006000041F4801143F4801338D0A0FB02CE4FF0A8
:100610000005E1FB02E506F00042E0FB03E54FF0D8
:100620000006E1FB03569CF0000F18BF4EF0010ED0
:10063000A4F1FF04B6F5007F64F5407404D25FEACC
:100640004E0E6D4146EB060642EAC62141EA55517F
:100650004FEAC52040EA5E504FEACE2EB4F1FD0CC1
:1006600088BFBCF5E06F1ED8BEF1004F08BF5FEA3F
:10067000500E50F1000041EB045170BD06F00046F1
:1006800046EA010140EA020081EA0301B4EB5C049E
:10069000C2BFD4EB0C0541EA045170BD41F4801196
:1006A0004FF0000E013C00F3AB8014F1360FDEBFBB
:1006B000002001F0004170BDC4F10004203C35DA97
:1006C0000C341BDC04F11404C4F1200500FA05F31A
:1006D00020FA04F001FA05F240EA020001F00042BB
:1006E00021F0004110EBD37021FA04F642EB060131
:1006F0005EEA430E08BF20EAD37070BDC4F10C045B
:10070000C4F1200500FA04F320FA05F001FA04F21E
:1007100040EA020001F0004110EBD37041F100010A
:100720005EEA430E08BF20EAD37070BDC4F1200515
:1007300000FA05F24EEA020E20FA04F301FA05F27D
:1007400043EA020321FA04F001F0004121FA04F225
:1007500020EA020000EBD3705EEA430E08BF20EAF5
:10076000D37070BD94F0000F0FD101F0004640002F
:1007700041EB010111F4801F08BF013CF7D041EAB1
:10078000060195F0000F18BF704703F000465200B5
:1007900043EB030313F4801F08BF013DF7D043EA86
:1007A0000603704794EA0C0F0CEA135518BF95EA3C
:1007B0000C0F0CD050EA410618BF52EA4306D1D1C3
:1007C00081EA030101F000414FF0000070BD50EAE2
:1007D000410606BF1046194652EA430619D094EA6C
:1007E0000C0F02D150EA013613D195EA0C0F05D156
:1007F00052EA03361CBF104619460AD181EA0301AA
:1008000001F0004141F0FE4141F470014FF0000061
:1008100070BD41F0FE4141F4780170BD70B54FF0FC
:10082000FF0C4CF4E06C1CEA11541DBF1CEA13557C
:1008300094EA0C0F95EA0C0F00F0A7F8A4EB05045E
:1008400081EA030E52EA03354FEA013100F0888055
:100850004FEA03334FF0805545EA131343EA12631E
:100860004FEA022245EA111545EA10654FEA0026D3
:100870000EF000419D4208BF964244F1FD0404F58C
:10088000407402D25B084FEA3202B61A65EB0305E8
:100890005B084FEA32024FF480104FF4002CB6EBA5
:1008A000020E75EB030E22BFB61A754640EA0C0025
:1008B0005B084FEA3202B6EB020E75EB030E22BF65
:1008C000B61A754640EA5C005B084FEA3202B6EBA6
:1008D000020E75EB030E22BFB61A754640EA9C0065
:1008E0005B084FEA3202B6EB020E75EB030E22BF35
:1008F000B61A754640EADC0055EA060E18D04FEAF3
:10090000051545EA16754FEA06164FEAC30343EA92
:1009100052734FEAC2025FEA1C1CC0D111F4801F5F
:100920000BD141EA00014FF000004FF0004CB6E758
:1009300011F4801F04BF01430020B4F1FD0C88BFF7
:10094000BCF5E06F3FF6AFAEB5EB030C04BFB6EB02
:10095000020C5FEA500C50F1000041EB045170BDF5
:100960000EF0004E4EEA113114EB5C04C2BFD4EB22
:100970000C0541EA045170BD41F480114FF0000EA6
:10098000013C90E645EA060E8DE60CEA135594EA22
:100990000C0F08BF95EA0C0F3FF43BAF94EA0C0F25
:1009A0000AD150EA01347FF434AF95EA0C0F7FF49A
:1009B00025AF104619462CE795EA0C0F06D152EAEE
:1009C00003353FF4FDAE1046194622E750EA4106D2
:1009D00018BF52EA43067FF4C5AE50EA41047FF4E3
:1009E0000DAF52EA43057FF4EBAE12E74FF0FF3C48
:1009F00006E000BF4FF0010C02E000BF4FF0010C19
:100A00004DF804CD4FEA410C7FEA6C5C4FEA430C91
:100A100018BF7FEA6C5C1BD001B050EA410C0CBFE0
:100A200052EA430C91EA030F02BF90EA020F002042
:100A3000704710F1000F91EA030F58BF994208BFA9
:100A400090422CBFD8176FEAE37040F00100704766
:100A50004FEA410C7FEA6C5C02D150EA013C07D1BD
:100A60004FEA430C7FEA6C5CD6D152EA033CD3D008
:100A70005DF8040B704700BF8446104662468C4602
:100A80001946634600E000BF01B5FFF7B7FF002835
:100A900048BF10F1000F01BD4DF808EDFFF7F4FF5E
:100AA0000CBF012000205DF808FB00BF4DF808EDE9
:100AB000FFF7EAFF34BF012000205DF808FB00BF0C
:100AC0004DF808EDFFF7E0FF94BF012000205DF82E
:100AD00008FB00BF4DF808EDFFF7CEFF94BF0120E3
:100AE00000205DF808FB00BF4DF808EDFFF7C4FFDC
:100AF00034BF012000205DF808FB00BF4FEA410C25
:100B00007FEA6C5C02D150EA013C0AD14FEA430C07
:100B10007FEA6C5C02D152EA033C02D14FF0000044
:100B200070474FF0010070474FEA410212F5001282
:100B300015D211D56FF47873B3EB625212D94FEA24
:100B4000C12343F0004343EA505311F0004F23FA0E
:100B500002F018BF404270474FF00000704750EA63
:100B6000013005D111F0004008BF6FF00040704720
:100B70004FF00000704700BF4FEA4102B2F1E0437E
:100B800024BFB3F5001CDCF1FE5C0DD901F0004C74
:100B90004FEAC0024CEA5070B2F1004F40EB8300C4
:100BA00008BF20F00100704711F0804F21D113F1F0
:100BB0003872BCBF01F00040704741F480114FEA29
:100BC0005252C2F11802C2F1200C10FA0CF320FAB2
:100BD00002F018BF40F001004FEAC1234FEAD323CF
:100BE00003FA0CFC40EA0C0023FA02F34FEA430339
:100BF000CCE77FEA625307D150EA01331EBF4FF0C2
:100C0000FE4040F44000704701F0004040F0FE40DC
:100C100040F40000704700BF53B94AB9002908BF2B
:100C200000281CBF4FF0FF314FF0FF3000F070B9CB
:100C3000ADF1080C6DE904CE00F006F8DDF804E033
:100C4000DDE9022304B070472DE9F047089E0D4608
:100C500004460F46002B4AD18A42944665D9B2FA1F
:100C600082F343B102FA03FCC3F120029F4020FA51
:100C700002F217439C404FEA1C4E1FFA8CF5B7FB5B
:100C8000FEF1220C0EFB117742EA074201FB05F050
:100C900090420AD91CEB020201F1FF3780F01C815F
:100CA000904240F2198102396244121AA4B2B2FB96
:100CB000FEF00EFB102244EA024400FB05F5A542BB
:100CC0000AD91CEB040400F1FF3280F00781A54231
:100CD00040F204816444023840EA0140641B002170
:100CE0001EB1DC400023C6E90043BDE8F0878B421B
:100CF00008D9002E00F0ED800021C6E90005084665
:100D0000BDE8F087B3FA83F1002949D1AB4202D3A1
:100D1000824200F2F880841A65EB03020120174634
:100D2000002EE2D0C6E90047DFE702B9FFDEB2FAE3
:100D300082F3002B40F090808A1A4FEA1C471FFA7A
:100D40008CFE0121B2FBF7F507FB1520220C42EACD
:100D500000420EFB05F0904208D91CEB020205F19F
:100D6000FF3802D2904200F2CB804546121AA4B25C
:100D7000B2FBF7F007FB102244EA02440EFB00FE30
:100D8000A64508D91CEB040400F1FF3202D2A645A7
:100D900000F2BB801046A4EB0E0440EA05409FE73A
:100DA000C1F120078B4022FA07FC4CEA030C05FA3C
:100DB00001F420FA07F3FD404FEA1C492343B5FB39
:100DC000F9F81FFA8CFE09FB18551C0C44EA05447F
:100DD00008FB0EF5A54202FA01F200FA01F00BD968
:100DE0001CEB040408F1FF3A80F08880A54240F231
:100DF0008580A8F102086444641B9DB2B4FBF9F33A
:100E000009FB134445EA044403FB0EFEA64508D93A
:100E10001CEB040403F1FF356CD2A6456AD9023BF2
:100E2000644443EA0843A3FB0295A4EB0E04AC42DE
:100E3000C846AE4656D353D056B1B0EB080264EB69
:100E40000E0404FA07F7CA40CC401743C6E9007401
:100E500018460021BDE8F087C3F1200102FA03FC27
:100E600020FA01F225FA01F19D402A434FEA1C477E
:100E70001FFA8CFEB1FBF7F007FB1015110C41EACD
:100E8000054100FB0EF58D4204FA03F408D91CEB72
:100E9000010100F1FF382FD28D422DD90238614473
:100EA000491B92B2B1FBF7F507FB151142EA01426B
:100EB00005FB0EF1914208D91CEB020205F1FF3847
:100EC00016D2914214D9023D6244521A45EA0041B9
:100ED00038E73146304608E73946E6E61046FBE695
:100EE0004845A9D2B9EB020865EB0C0E013BA3E71C
:100EF0004546EAE72B4694E74046D1E7D0467BE7F4
:100F0000023D624432E708460AE76444023842E799
:100F1000704700BF80B483B000AF7860064BD3F851
:100F2000902005497B681343C1F8903000BF0C370F
:100F3000BD465DF8047B70470008005880B485B05A
:100F400000AF78604FF0B043DA6C4FF0B0417B688F
:100F50001343CB644FF0B043DA6C7B681340FB6003
:100F6000FB6800BF1437BD465DF8047B704780B452
:100F700085B000AF78604FF0B043D3F84C214FF00C
:100F8000B0417B681343C1F84C314FF0B043D3F804
:100F90004C217B681340FB60FB6800BF1437BD46E3
:100FA0005DF8047B704780B500AF04F0B3F804F03F
:100FB000B7F84FF48030FFF7ADFF0BF017FE00F0ED
:100FC00021F800F0C1F800BF80BD0000B0B588B0C6
:100FD00000AF0B4B3C1D1D460FCD0FC495E807001D
:100FE00003C422800234130C23700BF03BFD3B1D25
:100FF00018460AF0CCFF00BF2037BD46B0BD00BF89
:10100000B809010880B588B000AF3B1D00221A6006
:101010005A609A60DA601A610023BB8300237B83E5
:1010200000233B830023FB7736E0FB7F434ADB0052
:1010300013449B79002B2CD0FB7F404A52F833306D
:101040003F4A93421BD03E4A934221D8B3F1904F7E
:1010500003D03C4A934209D01AE0FB7F374ADB00B9
:1010600013449A88BB8B1343BB8312E0FB7F334A44
:10107000DB0013449A887B8B13437B8309E0FB7F5F
:101080002E4ADB0013449A883B8B13433B8300E0DA
:1010900000BFFB7F0133FB77FB7F252BC5D90023E6
:1010A000FB600123BB6003233B61BB8B002B14D08F
:1010B000BB8B7B600120FFF741FF0120FFF757FF4B
:1010C0003B1D19464FF0904004F05EFDBB8B0022A3
:1010D00019464FF0904004F0C7FE7B8B002B12D0D6
:1010E0007B8B7B600220FFF729FF0220FFF73FFF89
:1010F0003B1D1946134804F047FD7B8B002219461F
:10110000104804F0B1FE3B8B002B13D03B8B7B606F
:101110000420FFF713FF0420FFF729FF3B1D1946AA
:10112000074804F031FD3B8B00221946044804F0C7
:101130009BFE00BF00BF2037BD4680BDD01E01080A
:10114000000800480004004880B400AF00BFBD465E
:101150005DF8047B704780B500AF022001F053FBBF
:1011600000BF80BD80B584B000AFF8600B467A60E8
:101170007B817A897B68F968022001F0E7FB00BF78
:101180001037BD4680BD000080B483B000AF7860EA
:10119000064BD3F8902005497B681343C1F8903083
:1011A00000BF0C37BD465DF8047B7047000800584F
:1011B00080B483B000AF7860074BD3F8803023F061
:1011C000070205497B681343C1F8803000BF0C3724
:1011D000BD465DF8047B70470004005880B483B0BE
:1011E00000AF78604FF0B0430A4AC3F89C204FF03C
:1011F000B043D3F89C3023F47C527B681B024FF041
:10120000B0411343C1F89C3000BF0C37BD465DF8B8
:10121000047B7047FECAFECA80B483B000AF78601A
:101220004FF0B0439B6823F400424FF0B0417B681D
:1012300013438B6000BF0C37BD465DF8047B7047DD
:1012400080B400AF4FF0B043D3F890304FF0B042CD
:1012500043F48033C2F8903000BFBD465DF8047B94
:10126000704780B400AF4FF0B043D3F890304FF0E8
:10127000B04223F48033C2F8903000BFBD465DF821
:10128000047B704780B400AF4FF0B043D3F8943084
:1012900003F08063B3F1806F01D1012300E00023EC
:1012A0001846BD465DF8047B704780B400AF4FF030
:1012B000B043D3F8943003F08053B3F1805F01D191
:1012C000012300E000231846BD465DF8047B70470B
:1012D00080B485B000AF78604FF0B0431A6D4FF026
:1012E000B0417B6813430B654FF0B0431A6D7B68C8
:1012F0001340FB60FB6800BF1437BD465DF8047BFC
:101300007047000080B400AF044B1B68C3F30B03AD
:101310001846BD465DF8047B704700BF002004E01E
:1013200080B400AF044B1B681B0C9BB21846BD4633
:101330005DF8047B704700BF002004E080B483B0F8
:1013400000AF786039607B685A683B681B041A43B9
:101350007B685A6000BF0C37BD465DF8047B704760
:1013600080B483B000AF786039607B685A683B68AE
:101370001A437B685A6000BF0C37BD465DF8047B9A
:10138000704780B483B000AF786039607B685A6979
:101390003B681B041A437B685A6100BF0C37BD468B
:1013A0005DF8047B704780B483B000AF786039602B
:1013B0007B685A693B681A437B685A6100BF0C37E7
:1013C000BD465DF8047B704780B483B000AF7860A1
:1013D00039607B683A689A6000BF0C37BD465DF89B
:1013E000047B704780B483B000AF786039607B685D
:1013F0003A689A6100BF0C37BD465DF8047B7047C0
:1014000080B400AF054B1B69044A23F00403136149
:1014100000BFBD465DF8047B704700BF00ED00E0F3
:1014200080B483B000AF78607B68FF225A6200BF4F
:101430000C37BD465DF8047B704780B483B000AFC5
:1014400078607B68CA225A627B6853225A6200BF66
:101450000C37BD465DF8047B704780B483B000AFA5
:10146000786039607B689B6823F007023B681A4309
:101470007B689A6000BF0C37BD465DF8047B7047FF
:1014800080B500AF044B4FF400421A6100F030F811
:1014900000F070F800BF80BD0040005880B500AF7C
:1014A00000F07CF800F094F80949002000F040FFBB
:1014B000FFF779FD012101200CF010F900F0EAF9A5
:1014C00000F0F8F900F088FA00F090F800BF80BD55
:1014D0007C06002080B400AF00BFBD465DF8047BF1
:1014E000704780B500AF5020FFF74EFE00BF80BDB3
:1014F00080B500AF00F004F800F01AF800BF80BD1E
:1015000080B500AFFFF7BEFE0346002B0DD0FFF7FE
:10151000CCFE0346002B08D104F080FD04F07EFDD4
:10152000FFF78EFEFFF79DFE00BF00BF80BD0000ED
:1015300080B500AF4FF48010FFF7CAFE3F210C4882
:10154000FFF742FF3F210A48FFF74CFF3F210848C1
:10155000FFF7F4FE3F210648FFF713FF3F21044841
:10156000FFF7FEFE3F210248FFF71DFF00BF80BDD1
:10157000000C005880B582B000AF00200BF0B4FB27
:1015800078607B68002B05D07B689B791846FFF755
:1015900025FE00BF00BF0837BD4680BD80B500AF47
:1015A000FFF798FFFFF79DFF00F002F800BF80BD36
:1015B00080B500AF0548FFF740FF00210348FFF763
:1015C0004CFF0248FFF72CFF00BF80BD0028004001
:1015D00080B500AF4FF40040FFF71EFE0CF06CF832
:1015E0000420FFF7E5FD00BF80BD000080B588B096
:1015F00000AF0BF081F8114A00214FF400600CF0AD
:1016000099F90F4B3B600F4B7B603B4619460E48E8
:101610000AF034FF0D4BBB600D4BFB600D4B3B6183
:1016200040F23C537B6107F1080318460BF0A6F922
:101630000BF05CF800BF2037BD4680BDB5C4000884
:101640003407032059160008711600084C090320BE
:1016500040080320F801032080B483B000AF0346A4
:10166000FB7100BF0C37BD465DF8047B704700007E
:1016700080B588B000AF78607B685B680B33FB6136
:10168000FB691B889BB2A3F51243072B60D801A20C
:1016900052F823F0B5160008F716000805170008E1
:1016A00051170008211700083117000839170008E2
:1016B0004917000807F10C0318460AF095FC3B7B1C
:1016C00019467B7B1A46BB7B24480CF09DFF3B7C74
:1016D000194623480CF098FFBB7D1946FB7D1A463E
:1016E0003B7E20480CF090FF1F480CF08DFF78687F
:1016F00000F070F82DE01D480CF086FF786800F0CF
:1017000043F826E01A480CF0E5FFFB69023319683C
:10171000FB6902335B681A4616480CF075FF18E047
:10172000FB6902331B68194613480CF06DFF10E08B
:1017300012480CF069FF0CE0FB6902331B68194684
:101740000F480CF061FF04E00E480CF05DFF00E074
:1017500000BF00BF2037BD4680BD00BFD4090108CF
:10176000F8090108140A01082C0A01084C0A0108AA
:10177000700A0108C00A0108E80A0108240B0108E0
:10178000480B0108840B010880B584B000AF786075
:101790007B685B680B33FB60FB680233BB60BB6834
:1017A0001B78194608480CF02FFFBB681B78002BEC
:1017B00003D106480CF08EFF03E005480CF08AFFC9
:1017C00000BF1037BD4680BDA80B0108D80B01082B
:1017D000140C010880B58AB000AF786007F10803E7
:1017E00000221A605A609A60DA6000237B6200234C
:1017F0003B627B685B680B33FB61FB690233BB6157
:10180000BB691B78002B28D11D480CF063FFFFF744
:10181000DDFB0F233B727F23BB72FFF781FD7862F4
:10182000796A18480CF0F0FE7B6A9BB2BB82FFF726
:1018300069FD3862396A14480CF0E6FE3B6A9BB2D7
:10184000FB8207F1080318460AF0B8FB01F0B0FE6E
:10185000002101200BF042FF0EE0BB691B78012B39
:1018600006D10A480CF0D0FE7B6800221A7003E013
:1018700007480CF0C9FE00BF2837BD4680BD00BF39
:101880004C0C0108680C01088C0C0108AC0C010818
:10189000E00C010880B500AF002003F0DFF9012063
:1018A00003F0DCF9022003F0D9F9012003F010FA6B
:1018B00000BF80BD80B500AF0121002003F03CFADD
:1018C0000121012003F038FA0121022003F034FA4B
:1018D00000BF80BD80B584B000AF786003F0F6FB38
:1018E000B8607B68FB60FB68B3F1FF3F0AD003F090
:1018F00005FC03461A46FB681344FB6002E0FFF751
:101900007FFD30BF03F0E2FB0246BB68D31AFA68E2
:101910009A42F4D800BF00BF1037BD4680BD80B5E5
:1019200000AF4FF0FF300BF009FF00BF80BD80B467
:1019300000AF00BFBD465DF8047B704780B582B044
:1019400000AF786039604FF0FF300BF0F7FE00BF5A
:101950000837BD4680BD80B582B000AF78600021F9
:101960004FF400600CF008F800BF0837BD4680BD9A
:1019700080B582B000AF786002200CF069F800BF3B
:101980000837BD4680BD80B582B000AF78600220C8
:101990000CF07EF800BF0837BD4680BD80B582B030
:1019A00000AF0346FB80FB88102B06D0102B0DDC0C
:1019B000012B05D0022B06D008E002F0B1F906E0B9
:1019C00002F0B5F903E002F0B9F900E000BF00BF92
:1019D0000837BD4680BD000080B500AF034B012233
:1019E0000349022000F024FF00BF80BDF519000864
:1019F0008802002080B500AF154B1B88FF2B1ED836
:101A0000144B1B780D2B0FD1134914480CF0FCFD1F
:101A100000F028F80E4B00221A804FF4807200214B
:101A20000D480CF057FF0AE0094B1B885A1C91B275
:101A3000074A11801A46074B1978074B9954084BEF
:101A400001220449022000F0F3FE00BF80BD00BF68
:101A5000900300208802002090020020140D01084D
:101A6000F519000880B500AF1C491D48FEF788FB3A
:101A70000346002B09D11B480CF02CFE1A4B1B4AC5
:101A80001A60194804F05EF826E019491448FEF778
:101A900077FB0346002B0AD116480CF01BFE124BB5
:101AA0004FF0B0521A60104804F04CF814E012499C
:101AB0000B48FEF765FB0346002B09D10F480CF0DD
:101AC00009FE094B0E4A1A60074804F03BF803E090
:101AD00003490C480CF098FD00BF80BD240D01089F
:101AE00090020020280D010880020020040000164A
:101AF000300D0108340D01083C0D0108400D0108AE
:101B000001000016480D010880B483B000AF786072
:101B1000064BD3F8802005497B681343C1F8803019
:101B200000BF0C37BD465DF8047B704700080058C5
:101B300080B483B000AF7860054B1A6804497B68B5
:101B400013430B6000BF0C37BD465DF8047B704744
:101B50000008005880B483B000AF0D4B9B6A9BB265
:101B60007B600B4B9B6A9BB23B6005E03B687B60F4
:101B7000074B9B6A9BB23B607A683B689A42F5D1FF
:101B80003B6818460C37BD465DF8047B704700BFC4
:101B90000028004080B485B000AF03460A46FB71C0
:101BA0001346BB71BA791D4913465B001344DB0031
:101BB0000B4415331B78FB73FB7B062B09D0FA7B98
:101BC000164913465B001344DB000B441433FA79C7
:101BD0001A70FA79114913465B001344DB000B4479
:101BE0001533FA7B1A70FA790C4913465B001344DB
:101BF000DB000B441433BA791A70BA7907491346DB
:101C00005B001344DB000B441533FA791A7000BFF4
:101C10001437BD465DF8047B704700BF9403002075
:101C200080B485B000AF03460A46FB711346BB7112
:101C3000294B1B78DBB2BA799A4232D0BA7927495C
:101C400013465B001344DB000B4414331B78FB7317
:101C5000FA7B224913465B001344DB000B44153327
:101C6000FA791A70FA791D4913465B001344DB00B8
:101C70000B441533BA791A70FA79184913465B0088
:101C80001344DB000B441433FA7B1A70BA791349FE
:101C900013465B001344DB000B441433FA791A70CB
:101CA00014E0FA790D4913465B001344DB000B4442
:101CB0001533BA791A70BA79084913465B00134490
:101CC000DB000B441433FA791A7000BF1437BD4699
:101CD0005DF8047B704700BF2404002094030020BB
:101CE00080B584B000AF0346FB714E4B1B78DBB26E
:101CF000062B18D14B4B1B78DAB24B4B1A70494A62
:101D0000FB791370FA79494913465B001344DB00F1
:101D10000B44153306221A70454B4FF0FF321A6000
:101D20000023FB8178E000F009F90346FB81FA7992
:101D30003E4913465B001344DB000B44083319682B
:101D4000FB89FA791944394813465B001344DB00D8
:101D5000034408331960FA79344913465B0013448D
:101D6000DB000B4408331B68BB602E4B1B78DBB2D7
:101D700019462E4A0B465B000B44DB001344083324
:101D80001B68BA689A4237D3264B1B787B737A7BE1
:101D9000264913465B001344DB000B4415331B78C4
:101DA0003B7313E07A7B214913465B001344DB004D
:101DB0000B4415331B787B737A7B1C4913465B00FD
:101DC0001344DB000B4415331B783B733B7B062B22
:101DD0000BD03A7B154913465B001344DB000B44E0
:101DE00008331B68BA689A42DCD27A7BFB791146C9
:101DF0001846FFF7CFFE0FE00A4B1B78DAB2FB79EB
:101E000011461846FFF70CFF064B1B78DAB2064B5B
:101E10001A70044AFB791370FB8918461037BD46C7
:101E200080BD00BF2404002025040020940300206E
:101E30002804002080B485B000AF03460A46FB7139
:101E40001346BB71394B1B78DBB2FA799A4211D138
:101E5000364B1B78DAB2364B1A70FA79354913468D
:101E60005B001344DB000B4415331B78DAB22F4BB5
:101E70001A703EE0FA792F4913465B001344DB00E9
:101E80000B4414331B78FB73FA792A4913465B0021
:101E90001344DB000B4415331B78BB73F979FA7BD1
:101EA00024480B465B000B44DB00034415331B78CE
:101EB000D8B2204913465B001344DB000B441533B2
:101EC00002461A70BB7B062B13D0F979BA7B1948EE
:101ED0000B465B000B44DB00034414331B78D8B281
:101EE000144913465B001344DB000B4414330246D1
:101EF0001A70FA790F4913465B001344DB000B4458
:101F00000C3301221A70094B1B78DBB2062B07D168
:101F1000BB79002B04D1084B4FF0FF321A6000BF91
:101F200000BF1437BD465DF8047B704724040020D1
:101F300025040020940300202804002080B582B0EE
:101F400000AF1A4B1B68B3F1FF3F26D0FFF702FE2C
:101F50007860164B1B687A689A4205D8134B1A684A
:101F60007B68D31A7B600AE0114B1B881A467B689A
:101F7000D31A3B600D4B1B683A6813447B600D4BD2
:101F80001B781A467B6802FB03F37B600A4B1B78C5
:101F90001A467B68D3407B6001E000237B607B684E
:101FA0009BB218460837BD4680BD00BF28040020FC
:101FB000300400202E0400202D04002080B582B0C3
:101FC00000AF0346FB80FB88002B08D1FFF7C2FD62
:101FD0000346214A1360032003F025FA39E0FB8809
:101FE000012B03D81D4B1B78012B02D0FB88013B32
:101FF000FB8000BF1A4B1B68DB6803F00403002B57
:10200000F8D0174B1B68DB68DAB2154B1B6862F41B
:102010009062DA60134B4FF40022DA60032003F081
:1020200010FA114B5B691B0C1B04FA880E49134311
:102030004B61FFF78FFD0346074A1360084B1B688F
:102040009A68074B1B6842F480629A60AFF3008085
:1020500000BF0837BD4680BD280400202D040020A5
:102060007C060020000800580028004080B584B09D
:1020700000AF454B9B6803F48063B3F5806F07D1D5
:1020800000BF424B1B68DB6803F00403002BF8D150
:102090003E4B1B689A683D4B1B6822F480629A6035
:1020A0003B4B1B78FB73FA7B3A4913465B001344A6
:1020B000DB000B4408331B68BB60FFF73FFF0346A0
:1020C000FB80FB88BA689A4205D20023BB81324B61
:1020D00001221A704DE0FB88304A128892B21344F4
:1020E0001A46BB68934206D92C4B1B88BB812A4BEE
:1020F00000221A703DE0BB689AB2FB88D31ABB81FC
:10210000254B01221A7034E0FA7B224913465B000A
:102110001344DB000B4408331A68FB889A420AD246
:10212000FA7B1C4913465B001344DB000B44083365
:1021300000221A6013E0FA7B164913465B00134431
:10214000DB000B4408331968FB88FA7BC91A114875
:1021500013465B001344DB00034408331960FA7B29
:102160000C4913465B001344DB000B4415331B780A
:10217000FB73FB7B062BC7D1BB891846FFF71EFFFD
:1021800000BF1037BD4680BD002800407C060020FF
:1021900024040020940300202C040020320400209A
:1021A00080B58AB000AFEFF310837B617B697B62FF
:1021B00072B600BF594B1B68CA225A62574B1B6844
:1021C00053225A62554B1B689A68544B1B6822F481
:1021D00080629A60524B1B7887F8233097F823204F
:1021E000504913465B001344DB000B440C331B784F
:1021F000DBB2022B6ED197F823204A4913465B00CD
:102200001344DB000B441B68FB6197F8232045490E
:1022100013465B001344DB000B4410331B68BB61A7
:10222000414B1B78DBB2002B4CD097F823203D4963
:1022300013465B001344DB000B440D331B78DBB209
:10224000012B24D197F8233001211846FFF7F2FD26
:102250007B6A3B613B6983F3108800BF97F82320BA
:10226000304913465B001344DB000B4404331A6807
:1022700097F823301146184600F032FA274B1B68B6
:10228000CA225A62254B1B6853225A6212E07B6AAB
:10229000FB60FB6883F3108800BF97F82330184673
:1022A00000F09AF91D4B1B68CA225A621B4B1B682F
:1022B00053225A6297F82330FA691946B86900F038
:1022C00095FA22E0FFF7D2FE7B6ABB60BB6883F31E
:1022D00010881AE000BF114B1B68DB6803F0040391
:1022E000002BF8D00D4B1B68DB68DAB20B4B1B6878
:1022F00062F49062DA600D4B4FF40022DA607B6A80
:102300007B607B6883F3108800BF044B1B68FF224F
:102310005A6200BF2837BD4680BD00BF7C06002042
:1023200024040020940300202C04002000080058FE
:1023300080B588B000AF03463960FB715E4B1B6807
:10234000CA225A625C4B1B6853225A625B4B9B68E1
:102350005A4A43F020039360584B9B68DBB203F06A
:102360000703DBB2C3F10403DAB2554B1A70534BC7
:102370001B6903F4FE034FF4FE023A613A6992FAD4
:10238000A2F2FA60FA687A617A69002A01D1202201
:1023900003E07A69B2FA82F2D2B2D340DBB20133FF
:1023A000DAB2484B1A70454B1B699BB2C3F30E035C
:1023B0009BB201339AB2444B1A80434B1B88013BBA
:1023C000404A127802FB03F3A3F5A0733C4A12784B
:1023D000D340BB61BB694FF6FE72934204D93B4BBD
:1023E0004FF6FF721A8003E0BB699AB2374B1A802E
:1023F0004FF40020FFF79CFB4FF40020FFF784FB15
:10240000FB79002B3DD1324B01221A70314B4FF03A
:10241000FF321A600023FB770CE0FA7F2E49134647
:102420005B001344DB000B440C3300221A70FB7F6B
:102430000133FB77FB7F052BEFD9284B06221A705F
:102440001D4B1B689A681C4B1B6822F480629A60C3
:10245000194B1B68DB68DAB2174B1B6862F4906299
:10246000DA601F4B4FF40022DA60032002F0E9FF2C
:10247000114B1B689A68104B1B6842F480429A60AB
:1024800009E00D4B1B68DB6803F48063002B02D06E
:10249000032002F0C8FF084B1B68FF225A6200228B
:1024A0000321032002F07DFF032002F094FF00BF10
:1024B0002037BD4680BD00BF7C06002000280040BC
:1024C0002D0400202E0400203004002032040020BF
:1024D0002C04002028040020940300202404002061
:1024E0000008005880B48BB000AFF860B9603B6062
:1024F0001346FB71002387F82630EFF31083FB614E
:10250000FB693B6272B600BF04E097F826300133E6
:1025100087F8263097F82630052B0CD897F8262018
:102520002C4913465B001344DB000B440C331B782F
:10253000DBB2002BE9D197F82630062B38D097F87C
:102540002620244913465B001344DB000B440C3364
:1025500001221A703B6ABB61BB6983F3108800BF1C
:1025600097F826201B4913465B001344DB000B44FD
:102570001033FA681A6097F82620164913465B0054
:102580001344DB000B440D33FA791A7097F82620B8
:10259000104913465B001344DB000B443A681A6091
:1025A000BB6897F826201A70002387F8273008E0C8
:1025B0003B6A7B617B6983F3108800BF012387F846
:1025C000273097F8273018462C37BD465DF8047B36
:1025D000704700BF9403002080B586B000AF03466B
:1025E000FB71EFF31083FB60FB687B6172B600BF89
:1025F000032002F0FEFE344B1B68CA225A62324BA3
:102600001B6853225A62FA79304913465B0013441F
:10261000DB000B440C331B78DBB2022B42D1FB797D
:1026200000211846FFF706FC294B1B78FB74FB7C46
:10263000062B2FD1274B9B6803F48063B3F5806F83
:1026400007D100BF204B1B68DB6803F00403002B9D
:10265000F8D11D4B1B689A681B4B1B6822F48062E3
:102660009A6000BF184B1B68DB6803F00403002B63
:10267000F8D0154B1B68DB68DAB2134B1B6862F4A9
:102680009062DA60144B4FF40022DA60032002F00B
:10269000D8FE07E0114B1B78DBB2FA7C9A4201D0DE
:1026A000FFF7E4FC084B1B68FF225A62032002F08C
:1026B00092FE7B69BB60BB6883F3108800BF00BFDC
:1026C0001837BD4680BD00BF7C0600209403002063
:1026D00024040020002800400008005825040020A1
:1026E00080B586B000AF03463960FB71FA793B498B
:1026F00013465B001344DB000B440C331B78DBB246
:10270000022B03D1FB791846FFF766FFEFF3108326
:10271000FB60FB687B6172B600BF032002F069FEBC
:102720002F4B1B68CA225A622D4B1B6853225A62D8
:10273000FA792A4913465B001344DB000B440C333F
:1027400002221A70FA79254913465B001344DB0014
:102750000B4408333A681A60FA79204913465B0043
:102760001344DB000B4404333A681A60FB791846C3
:10277000FFF7B6FA03467B821A4B1B787B741A4B21
:102780001B78DBB27A7C9A4202D0FFF76FFC13E031
:10279000FA79124913465B001344DB000B440833FB
:1027A00019687B8AFA79C91A0C4813465B001344EE
:1027B000DB00034408331960094B1B68FF225A628F
:1027C000032002F008FE7B69BB60BB6883F31088BE
:1027D00000BF00BF1837BD4680BD00BF9403002076
:1027E0007C060020240400202504002080B584B04D
:1027F00000AFF8600B467A60FB727B68984700BFB9
:102800001037BD4680BD80B582B000AF0346FB7176
:10281000FB79002B02D0022B03D005E000F092FAE6
:1028200002E000F043FA00BF00BF0837BD4680BD9C
:1028300080B584B000AFB9607B600346FB7313467C
:10284000BB81FB7B002B02D0022B0DD019E00F4A7D
:102850007B6813600E4B0F4A1A60BB891A46B96831
:102860000B4805F097FC0CE00B4A7B6813600B4BA0
:102870000B4A1A60BB891A46B968084805F08AFCF9
:1028800000BF00BF1037BD4680BD00BF340400202C
:1028900014050020003801403C0400208004002082
:1028A0000080004080B586B000AFB9607B60034611
:1028B000FB731346BB810023FB750023BB75FB7BB9
:1028C000002B02D0022B0CD017E01C4B1C4A1A60C4
:1028D000BA897B68B968194805F0CEFB0346FB75D9
:1028E0000BE0184B184A1A60BA897B68B96815481A
:1028F00005F0C2FB0346FB7500BFFB7D032B17D819
:1029000001A252F823F000BF192900081F2900086E
:10291000252900082B2900080023BB7509E00123A5
:10292000BB7506E00223BB7503E00323BB7500E023
:1029300000BFBB7D18461837BD4680BD140500207A
:1029400000380140800400200080004080B586B03F
:1029500000AFB9607B600346FB731346BB81002365
:10296000FB750023BB75FB7B002B02D0022B0FD025
:102970001DE01F4A7B6813601E4B1F4A1A60BB890B
:102980001A46B9681B4805F051FC0346FB750EE07A
:102990001A4A7B6813601A4B1A4A1A60BB891A4696
:1029A000B968174805F042FC0346FB7500BFFB7D84
:1029B000032B17D801A252F823F000BFCD2900083D
:1029C000D3290008D9290008DF2900080023BB7596
:1029D00009E00123BB7506E00223BB7503E0032376
:1029E000BB7500E000BFBB7D18461837BD4680BDF3
:1029F0003804002014050020003801404004002065
:102A0000800400200080004080B582B000AF786074
:102A10007B681B680F4A93420AD00F4A93420FD13A
:102A20000E4B1B68002B0DD00C4B1B68984709E020
:102A30000B4B1B68002B07D0094B1B68984703E022
:102A400000BF02E000BF00E000BF00BF0837BD4686
:102A500080BD00BF008000400038014034040020E9
:102A60003C04002080B582B000AF78607B681B68B2
:102A70000F4A93420AD00F4A93420FD10E4B1B6864
:102A8000002B0DD00C4B1B68984709E00B4B1B68C3
:102A9000002B07D0094B1B68984703E000BF02E0FA
:102AA00000BF00E000BF00BF0837BD4680BD00BFCB
:102AB000008000400038014038040020400400201D
:102AC00080B483B000AF78604FF0B043D3F890305B
:102AD00023F018024FF0B0417B681343C1F89030E7
:102AE00000BF0C37BD465DF8047B704780B485B0ED
:102AF00000AF78604FF0B0439A6C4FF0B0417B6804
:102B000013438B644FF0B0439A6C7B681340FB60B7
:102B1000FB6800BF1437BD465DF8047B704780B486
:102B200085B000AF78604FF0B043DA6C4FF0B04141
:102B30007B681343CB644FF0B043DA6C7B6813407F
:102B4000FB60FB6800BF1437BD465DF8047B70472F
:102B500080B500AF02F04CFAFEF792FC00F014F8DA
:102B600000F070F800F08EF800F0A9F900F08AF992
:102B700000F036F900F052F900F03AF9FEF78EFC59
:102B8000FEF7CDFEFCE7000080B59AB000AF07F17C
:102B900020034822002118460BF09CFE3B1D00221A
:102BA0001A605A609A60DA601A615A619A6103F099
:102BB00035FA0020FFF784FF214B1B6823F4C06324
:102BC0001F4A43F4007313601D4B1B6803F4C0637A
:102BD0003B603B6847233B624FF480337B620123B9
:102BE000BB624FF48073FB620123BB6440233B63F1
:102BF0000023FB6407F12003184603F0A3FD0346FE
:102C0000002B01D000F068F96F237B600223BB60CA
:102C10000023FB6000233B6100237B610023BB6139
:102C20000023FB613B1D0121184604F0FFF8034619
:102C3000002B01D000F050F900BF6837BD4680BDC1
:102C40000004005880B594B000AF3B4650220021EC
:102C500018460BF03FFE4FF440533B604FF4804367
:102C60007B640223BB641023FB643B46184604F0DC
:102C70001AFD0346002B01D000F02EF900BF50379B
:102C8000BD4680BD80B500AF064B074A1A600548B7
:102C900003F03EF90346002B01D000F01DF900BF00
:102CA00080BD00BF44040020000C005880B500AF78
:102CB000224B234A1A60214B4FF416525A601F4B85
:102CC00000229A601D4B0022DA601C4B00221A6120
:102CD0001A4B0C225A61194B00229A61174B0022A1
:102CE0001A62164B00225A62144B00229A62134B4E
:102CF00000225A66114805F06FF90346002B01D0F7
:102D000000F0EAF800210D4807F049FA0346002BCD
:102D100001D000F0E1F80021084807F07EFA0346F0
:102D2000002B01D000F0D8F8044807F0FFF9034663
:102D3000002B01D000F0D0F800BF80BD800400203F
:102D40000080004080B500AF234B244A1A60224B1C
:102D50004FF416525A60204B00229A601E4B0022FC
:102D6000DA601D4B00221A611B4B0C225A611A4B70
:102D700000229A61184B4FF40042DA61164B002290
:102D80001A62154B00225A62134B00229A621248B3
:102D900005F022F90346002B01D000F09DF8002138
:102DA0000D4807F0FCF90346002B01D000F094F821
:102DB0000021094807F031FA0346002B01D000F04A
:102DC0008BF8054807F0B2F90346002B01D000F05C
:102DD00083F800BF80BD00BF14050020003801400B
:102DE00080B400AF00BFBD465DF8047B70470000B3
:102DF00080B500AF074B084A1A60064B00225A60A4
:102E0000044804F0D7FE0346002B01D000F064F81C
:102E100000BF80BD680600200010005880B500AFDC
:102E2000164B174A1A60154B00225A60134B0F229B
:102E30009A60124B47F6FF72DA60104B00221A615B
:102E40000E4B00229A610D4B0022DA610B4B0022DF
:102E50005A610A4804F0E4FE0346002B01D000F05A
:102E60003BF800220021054804F0DAFF0346002B5E
:102E700001D000F031F800BF80BD00BF7C0600200B
:102E80000028004080B500AF0420FFF72FFE01208E
:102E9000FFF72CFE0220FFF729FE00220F210E2053
:102EA00002F07FFA0E2002F096FA00220F213A205B
:102EB00002F077FA3A2002F08EFA00BF80BD80B5AA
:102EC00000AF0420FFF72BFE0120FFF728FE0220B1
:102ED000FFF725FE00BF80BD80B400AF00BFBD4638
:102EE0005DF8047B704780B400AF4FF0B043D3F877
:102EF00090304FF0B04243F40043C2F8903000BF2E
:102F0000BD465DF8047B704780B485B000AF786043
:102F10004FF0B043DA6C4FF0B0417B681343CB64A1
:102F20004FF0B043DA6C7B681340FB60FB6800BF76
:102F30001437BD465DF8047B704780B485B000AFA0
:102F400078604FF0B0431A6D4FF0B0417B68134387
:102F50000B654FF0B0431A6D7B681340FB60FB6854
:102F600000BF1437BD465DF8047B704780B485B060
:102F700000AF78604FF0B0439A6D4FF0B0417B687E
:102F800013438B654FF0B0439A6D7B681340FB6031
:102F9000FB6800BF1437BD465DF8047B704780B402
:102FA00085B000AF78604FF0B043DA6D4FF0B041BC
:102FB0007B681343CB654FF0B043DA6D7B681340F9
:102FC000FB60FB6800BF1437BD465DF8047B7047AB
:102FD00080B485B000AF78604FF0B0431A6E4FF008
:102FE000B0417B6813430B664FF0B0431A6E7B68A9
:102FF0001340FB60FB6800BF1437BD465DF8047BDF
:10300000704780B500AF4FF40020FFF796FF002215
:1030100000212E2002F0C5F92E2002F0DCF900BFBD
:1030200080BD000080B582B000AF78607B681B680F
:103030000D4A934213D14FF48010FFF77EFF002218
:1030400000212C2002F0ADF92C2002F0C4F900225E
:1030500000212D2002F0A5F92D2002F0BCF900BFBF
:103060000837BD4680BD00BF000C005880B5A0B039
:1030700000AF786007F16C0300221A605A609A6012
:10308000DA601A6107F10C035022002118460BF098
:1030900021FC7B681B68684A93426ED10223FB6067
:1030A0000023BB6207F10C03184604F0FCFA034648
:1030B000002B01D0FFF710FF0120FFF770FF012068
:1030C000FFF722FF0C23FB6602233B6700237B678D
:1030D0000323BB670823FB6707F16C0319464FF016
:1030E000904002F051FD554B554A1A60534B112246
:1030F0005A60524B10229A60504B0022DA604F4BBC
:1031000080221A614D4B00225A614C4B00229A6179
:103110004A4B0022DA61494B00221A62474802F00A
:103120009FF90346002B01D0FFF7D6FE4FF08853DE
:10313000FB6500233B66002387F86430002387F893
:1031400065300123BB6607F15C0319463B4802F07A
:10315000B9FC0346002B01D0FFF7BEFE7B68374A5F
:10316000DA67364A7B68936200220021252002F04C
:1031700018F9252002F02FF95AE07B681B68314AC4
:10318000934255D10123FB6000237B6207F10C03BE
:10319000184604F088FA0346002B01D0FFF79CFE86
:1031A0004FF48040FFF714FF0220FFF7ADFEC0236D
:1031B000FB6602233B6700237B670323BB67072370
:1031C000FB6707F16C0319461F4802F0DDFC1F4B3B
:1031D0001F4A1A601D4B0F225A601C4B10229A6026
:1031E0001A4B0022DA60194B80221A61174B002219
:1031F0005A61164B00229A61144B0022DA61134B7C
:1032000000221A62114802F02BF90346002B01D06C
:10321000FFF762FE7B680D4ADA670C4A7B689362AF
:1032200000220021242002F0BCF8242002F0D3F870
:1032300000BF8037BD4680BD00800040A80500204B
:103240004400024000380140000400480806002005
:103250004404024080B596B000AF786007F10803DF
:103260005022002118460BF035FB7B681B680D4A85
:10327000934213D14FF40073BB604FF080533B6413
:1032800007F10803184604F00EFA0346002B01D09C
:10329000FFF722FE4FF48020FFF74FFE00BF5837A4
:1032A000BD4680BD0010005880B596B000AF786074
:1032B00007F108035022002118460BF00BFB7B6836
:1032C0001B68124A93421DD14FF40063BB604FF458
:1032D0008073BB6407F10803184604F0E4F9034661
:1032E000002B01D0FFF7F8FDFFF7FDFD4FF48060E4
:1032F000FFF73CFE00220021032002F052F80320D9
:1033000002F069F800BF5837BD4680BD0028004074
:1033100080B400AF00BFBD465DF8047B704780B449
:1033200000AFFEE780B400AFFEE780B400AFFEE779
:1033300080B400AFFEE780B400AF00BFBD465DF8CB
:10334000047B704780B400AF00BFBD465DF8047BCE
:10335000704780B400AF00BFBD465DF8047B704786
:1033600080B500AF01F09EFE00BF80BD80B500AF0C
:10337000FEF716FF00BF80BD80B500AF024802F027
:1033800050FA00BF80BD00BFA805002080B500AF87
:10339000024804F0CBFF00BF80BD00BF1405002031
:1033A00080B500AF024804F0C1FF00BF80BD00BF80
:1033B0008004002080B500AF01F0C2FA00BF80BDDC
:1033C00080B500AF01F0F2FA00BF80BD80B500AF5C
:1033D00002F07AFD00BF80BD80B500AF024802F068
:1033E00020FA00BF80BD00BF0806002080B500AFF6
:1033F000102002F051FD00BF80BD80B500AF01205C
:1034000002F04AFD00BF80BD80B500AF022002F08F
:1034100043FD00BF80BD80B400AF01231846BD4608
:103420005DF8047B704780B582B000AF786039608A
:103430000BF0A2FA034616221A604FF0FF3318462B
:103440000837BD4680BD80B582B000AF78604FF0D0
:10345000FF317868FFF7E7FFFEE780B586B000AF81
:10346000F860B9607A6000237B610AE0AFF3008006
:103470000146BB685A1CBA60CAB21A707B69013334
:103480007B617A697B689A42F0DB7B681846183763
:10349000BD4680BD80B483B000AF78604FF0FF338D
:1034A00018460C37BD465DF8047B704780B483B086
:1034B00000AF786039603B684FF400525A600023D7
:1034C00018460C37BD465DF8047B704780B483B066
:1034D00000AF7860012318460C37BD465DF8047BC9
:1034E000704780B485B000AFF860B9607A6000239F
:1034F00018461437BD465DF8047B704780B586B02A
:1035000000AF7860144A154BD31A7B617B693B612D
:10351000134B1B68002B02D1114B124A1A60104B3F
:103520001A687B6813443A699A4207D20BF024FA6E
:1035300003460C221A604FF0FF3309E0084B1B686A
:10354000FB60074B1A687B681344054A1360FB68ED
:1035500018461837BD4680BD00000320001000004B
:10356000A0060020681B002080B400AF034B1B683E
:103570001846BD465DF8047B704700BF8075FF1F8D
:1035800080B400AF034B1B68DBB21846BD465DF844
:10359000047B70478475FF1F80B400AF034B1B682A
:1035A0001B0A1846BD465DF8047B70478475FF1FF3
:1035B000B0B590B000AF334B3C1D1D460FCD0FC4CE
:1035C0000FCD0FC40FCD0FC495E8070003C42280B0
:1035D00000F0BCFB012102200AF080F82A4A0021F9
:1035E00010200AF0A7F93B1D184608F0B9FC034665
:1035F00087F83F3097F83F30002B08D097F83F30DE
:10360000194622480BF000F8FFF766FC02E020485C
:103610000AF0FAFF00F0B0FB07F0EAF81D4B0022B9
:1036200083F880201B4B4FF6FF72DA821A4A002182
:103630004FF400700AF07EF9184A00214FF48060C0
:103640000AF078F9134B002283F8822000F0B0FED4
:10365000104B00225A760F4B00221A76104B002294
:1036600010490020FEF73EFF0F4B80221A800F4BBF
:10367000A0221A80012000F02FFD00BF4037BD4678
:10368000B0BD00BFC80D01087DC10008680D01086C
:10369000A00D0108AC06002043420008B136000826
:1036A000314200082D07002030070020320700209B
:1036B00080B500AF034BDB8A184600F069FE00BFFF
:1036C00080BD00BFAC060020B0B598B004AF7860F4
:1036D0007B680133BB64BB6C1B78FF2B00F06A82F4
:1036E000FF2B00F30C83052B02D03E2B24D006E3E6
:1036F000BB6C0233FB60FB68B3F801309AB2A94B94
:10370000DB8A9A4214D1A74B0022DA82A54B002211
:1037100083F88020A4480AF0DDFFFB68B3F801308D
:103720009BB21946FB68DB781A46A0480AF06CFF8A
:10373000012000F0D1FCE3E2BB6C0233FB63FB6BC6
:103740001B78013B0B2B00F2318201A252F823F0CF
:1037500061380008B73A000881370008AD3B00081F
:10376000AD3B0008AD3B0008AD3B0008AD3B000899
:10377000AD3B0008ED390008AD3B0008D937000823
:10378000FB6B0133FB628A480AF0A4FFFB6AB3F8C3
:1037900003309BB21846FCF7ADFE4FF00002854B9C
:1037A000FCF712FF02460B4610461946FB6AB3F8B7
:1037B00005309BB21C46FB6AB3F807309BB21A4631
:1037C00013469B0013445B000193009402460B4692
:1037D00079480AF019FFECE1922387F83B30FB6B44
:1037E00001337B6375480AF00FFF7B6B1B78002B5E
:1037F00003D173480AF06EFF02E072480AF06AFFD4
:10380000684BDB8A07F10A0207F10B01184608F042
:1038100008F9034687F83B3097F83B30002B03D07C
:1038200069480AF0F1FE17E068480AF053FFFB7A96
:10383000022B0AD1BB7A022B07D1FB7A1946BB7A3D
:103840001A4663480AF0E0FE06E0FB7A1946BB7AA6
:103850001A465F480AF0D8FE04200AF0F9F8A8E1F9
:10386000FB6B0133BB61BB69B3F801309BB21946F6
:1038700058480AF0C9FEBB699B7A1846BB695B7A57
:103880001C46BB691B7A1D46BB69DB791A46BB69BE
:103890009B791946BB695B790293019100922B4693
:1038A000224601464C480AF0AFFEBB69B3F80B3024
:1038B0009BB21846FCF71EFE4FF000023D4BFCF792
:1038C00083FE02460B4610461946BB69B3F80D301D
:1038D0009BB21C46BB69B3F80F309BB21A46134625
:1038E0009B0013445B000193009402460B46324850
:1038F0000AF08AFE2B4B93F88030042B04D1294B1D
:10390000062283F8802003E0264B052283F88020DE
:10391000BB69B3F801309AB2224BDA82BB69B3F8C3
:103920000B309BB21846FCF7E5FD4FF00002214B2F
:10393000FCF74AFE02460B4610461946FDF71CF9F5
:1039400003467B617869FCF7E7FD02460B46234896
:103950000AF05AFEBB69B3F80D309BB219462048F5
:103960000AF052FEBB69B3F80F309BB21A461346F9
:103970009B0013445B0007EE903AF8EEE77AC7ED40
:10398000047A3869FCF7C8FD02460B4615480AF070
:103990003BFE15480AF038FE00214FF4806009F024
:1039A000EBFF06E1AC060020040E0108300E010812
:1039B0006C0E01080000F43FA00E01080C0F010876
:1039C0003C0F0108480F0108540F0108740F01084B
:1039D000940F0108B80F01080010010850100108E9
:1039E000681001087C100108A0100108FB6B01336E
:1039F0003B63A24B93F881301846FEF7EDFD3B6B1D
:103A0000B3F801309BB219469D480AF0FDFD3B6BAF
:103A10009B7A18463B6B5B7A1C463B6B1B7A1D46B8
:103A20003B6BDB791A463B6B9B7919463B6B5B79A9
:103A30000293019100922B462246014691480AF0DA
:103A4000E3FD3B6BB3F817309BB21846FCF752FD11
:103A50004FF000028C4BFCF7B7FD02460B461046B8
:103A600019463B6BB3F819309BB21C463B6BB3F85D
:103A70001B309BB21A4613469B0013445B00019314
:103A8000009402460B4681480AF0BEFD7B4B93F83A
:103A90008030042B04D1794B062283F8802003E088
:103AA000764B052283F880203B6BB3F801309AB245
:103AB000724BDA827DE00023FB64FB6B0133BB6257
:103AC000BB6A5B7887F82730BB6A5B7A87F8263059
:103AD000BB6A093301333B620023FB6497F827304C
:103AE000002B65D15CE0FB6C3A6A13441B78FB77D2
:103AF000FB6C01333A6A13441B78BB77BB7FFF2B07
:103B000009D0FF2B40DC162B40D0162B3CDC012BC0
:103B10003ED00A2B3FE0FB7F062B3BD9FB6C0233E8
:103B20003A6A13441B78012B34D159480AF0D2FD6C
:103B3000FB6C03333A6A13441B78882B22D1554817
:103B40000AF0C8FD4D4B012283F88220BB6ADA7867
:103B5000514B1A70BB6A1A794F4B5A70BB6A5A792B
:103B60004D4B9A70BB6A9A794B4BDA70BB6ADA7923
:103B7000494B1A71BB6A1A7A474B5A71022007F0F7
:103B8000D9FA00E000BF05E000BF04E000BF02E09A
:103B900000BF00E000BFFB7F0133FA6C1344FB64FD
:103BA00097F82630FA6C9A429DDB01E000BFA7E04F
:103BB00000BFA5E0BB6C02337B647B6C1B889BB2AF
:103BC00040F2094293421DDCB3F5806F40F39380CD
:103BD000A3F20143082B00F28E8001A252F823F0D9
:103BE000593C0008673C0008F73C0008F73C000817
:103BF000F73C0008F73C00080D3C0008F73C0008C3
:103C0000B53C0008B3F5416F71D074E07B6C0233B2
:103C10003B643B6C1B78022B6FD13B6C5B78002BB9
:103C200006D03B6C5B7819461C480AF0EDFC64E05A
:103C3000002001F067F8114B93F88230002B07D079
:103C400017480AF047FD0021042009F095FE54E0D2
:103C500014480AF03FFD50E013480AF03BFD0420F1
:103C600009F0F6FE4AE011480AF034FD034BDB8A06
:103C70000F49184607F0B4F840E000BFAC0600203A
:103C8000A4100108001001080000F43FA00E010874
:103C9000F410010810110108340700203411010844
:103CA0006411010894110108D8110108EC110108F0
:103CB00007B2010015480AF00DFD7B6C0233D3F802
:103CC0000230194612480AF09FFC7B6C0233D3F88D
:103CD000023019460F480AF097FC0F4BDB8A01218E
:103CE000184607F07BFA0D480AF0F4FC06E00820BD
:103CF00009F0AEFE02E000BF02E000BF00E000BF3E
:103D0000012318465037BD46B0BD00BF141201084C
:103D10003C12010854120108AC0600206812010888
:103D200080B400AF00BFBD465DF8047B704780B42F
:103D300000AF00BFBD465DF8047B704780B400AFA4
:103D400000BFBD465DF8047B7047000080B582B0BF
:103D500000AF064B3B60064B7B603B46194605486F
:103D600008F0F0F900BF0837BD4680BD28000320E9
:103D7000554300081D430008F0B58DB006AF002381
:103D80003B809223FB75A5480AF0A4FC07F025FEB2
:103D90000346FB75FB7D002B05D0FB7D1946A04833
:103DA0000AF032FC02E09F480AF094FC00F050FA5E
:103DB00038613A690621002007F023FD0346FB75B0
:103DC000FB7D002B05D0FB7D194697480AF01CFCB3
:103DD00021E096480AF07EFC3B6905331B781846C3
:103DE0003B6904331B781C463B6903331B781D4633
:103DF0003B6902331B781A463B6901331B7819462D
:103E00003B691B780293019100922B4622460146A2
:103E100087480AF0F9FB3B6905331A78854B1A721B
:103E20003B6904331A78834B5A723B6903331A781F
:103E3000804B9A723B6902331A787E4BDA723B6987
:103E400001331A787B4B1A733B691A78794B5A7392
:103E5000794A1021182007F0D4FC0346FB75FB7D3E
:103E6000002B05D0FB7D194674480AF0CDFB02E01B
:103E700073480AF02FFC734A1021082007F0C1FC98
:103E80000346FB75FB7D002B05D0FB7D19466E4874
:103E90000AF0BAFB02E06D480AF01CFC1821012070
:103EA00007F034FD0346FB75FB7D002B05D0FB7D41
:103EB000194667480AF0A8FB02E066480AF00AFCC7
:103EC00007F0F3F90346FB75FB7D002B05D0FB7D66
:103ED000194661480AF098FB02E060480AF0FAFBD4
:103EE0000023FB73FB7B43F00103FB73FB7B002B85
:103EF0002BD05B4BBB60BA1DF87BBB1C01933B1DF9
:103F0000009313460722002106F0D1FF0346FB75FC
:103F1000FB7D002B05D0FB7D194652480AF074FB4F
:103F200002E051480AF0D6FBFC88BD88B868FCF76F
:103F300087F90346DAB2BB6800931346002229468C
:103F4000204607F0B5FB0346FB75F88879883B46A9
:103F500000930223002207F0ABFB0346FB7502220D
:103F60000221002007F0DBFD0346FB75FB7D002BE3
:103F700005D0FB7D19463D480AF046FB02E03C486F
:103F80000AF0A8FB3B4B01221A703A4B1B781846EB
:103F900006F00EFE0346FB75FB7D002B05D0FB7D76
:103FA000194635480AF030FB02E034480AF092FB2B
:103FB000304B01225A702F4B08221A712D4B1022C0
:103FC0005A712C4B0022DA702A4B2D4A9A60294BE9
:103FD00001229A70274B9C78264B5D78254B1B79E4
:103FE000244A52792349C9782248806800260496D9
:103FF000039002910192009300230122294620465A
:1040000006F02AFE0346FB75FB7D002B3CD0FB7DB2
:1040100019461C480AF0F8FA39E000BF7C12010882
:10402000A8120108D8120108F81201085413010857
:10403000A01301080800002008200108DC13010873
:1040400034140108182001087C140108D414010854
:104050001C1501085C1501088C150108C015010824
:10406000E4150108EC1501081C1601083C160108AE
:1040700078160108AC060020A4160108E416010811
:1040800007B20100141701080E480AF023FB0E4B7B
:104090009B78002B0FD007F029F80346FB75FB7DBA
:1040A000002B05D0FB7D194608480AF0ADFA02E066
:1040B00007480AF00FFB07480AF0A6FA00BF1C37B2
:1040C000BD46F0BD60170108AC0600209C17010832
:1040D000DC1701080C18010880B58CB008AF034646
:1040E000FB719223FB72FB79012B06D1414B1B889C
:1040F000FB81414B1B88BB8105E04FF4C863FB810A
:104100004FF47A63BB813D4B93F881301846FEF73C
:1041100063FAFB79022B19D1384B93F88030012BCD
:1041200004D0364B93F88030022B0FD106F022FCDE
:104130000346FB72FB7A002B05D0FB7A1946304808
:104140000AF062FA02E02F480AF0C4FA2B4AFB791F
:1041500082F88030294B1B7EBA89F98900200690AD
:1041600000200590284804900393284B02930723CE
:104170000193002300930023002006F01FFC034658
:10418000FB72FB7A002B05D0FB7A194620480AF017
:104190003BFA02E01F480AF09DFA1F490E2006F084
:1041A00033FF0346FB72FB7A002B0ED0FB79012B09
:1041B00005D1FB7A194619480AF026FA17E0FB7A6E
:1041C000194617480AF020FA11E0FB79012B0AD1B1
:1041D00014480AF019FA094B93F88130124918462D
:1041E000FEF77EFA03E011480AF00EFA00BF10371E
:1041F000BD4680BD3007002032070020AC060020FD
:104200003818010884180108C50600202820010874
:10421000CC18010804190108080000202C19010815
:10422000601901089819010846E00100C019010849
:1042300080B500AF00214FF4007009F09DFB00BF76
:1042400080BD80B500AF0220FFF746FF00BF80BDF4
:1042500080B586B000AFFFF787F938613B69B3F1ED
:10426000FF3F23D0FFF798F9B860FFF789F978602E
:104270003B69DAB2164B1A703B691B0ADAB2144B6F
:104280005A707B68DAB2124B9A70BB68DAB2104B84
:10429000DA70BB681B0ADAB20D4B1A71BB681B0CD3
:1042A000DAB20B4B5A710A4B7B610BE0002008F02D
:1042B0001BFDF860FB68002B02D0FB687B6101E00E
:1042C000044B7B617B6918461837BD4680BD00BF33
:1042D000A40600200020010880B582B000AF7860FD
:1042E0000021102009F048FB00BF0837BD4680BD03
:1042F00080B582B000AF7860012009F0A9FB00BF53
:104300000837BD4680BD80B582B000AF786001201F
:1043100009F0BEFB00BF0837BD4680BD80B584B044
:1043200000AF78607B68FB60FB685B680833184609
:1043300006F0B0FA0346FB72FB7A002B03D0FB6851
:1043400001221A7003E0FB6800221A7000BF1037C8
:10435000BD4680BD80B584B000AF0346FB71FB79DC
:10436000002B02D0012B07D00DE040F2FF73FB6061
:10437000F86809F02DFB06E040F2FF73FB60F86877
:1043800009F046FB00BF00BF1037BD4680BD0000EE
:1043900080B483B000AF0346FB80044AFB8853809F
:1043A00000BF0C37BD465DF8047B70473C0700201A
:1043B00080B500AF0C4A0021202009F0BBFA0B4B5E
:1043C0000A221A700A4B0C221A700A4B0A221A701F
:1043D000094B20221A70094B00221A7000F086F94E
:1043E00007F076FC00BF80BDFD440008AE0700204A
:1043F000AF070020AC070020AD070020C507002054
:1044000080B582B000AF78607B681B78032B06D044
:10441000032B58DC002B38D0012B4ED053E07B68A7
:104420005B6819462B480AF0EFF87B685B687A688E
:10443000127A134400221A707B685A687B681B7AD0
:104440001946104607F026FC7B681A7A224B1B7827
:104450001344DAB2204B1A701F4B1B78092B03D878
:104460007B681B7A132B30D81B4B0A221A701B4B0C
:104470001B780133DAB2194B1A70184B1B78162BC4
:1044800023D9164B0C221A701FE015480AF022F9A6
:1044900007F01EFC134A0A210A2007F079FC124A91
:1044A0001E210A2007F074FC104B1B78104A11786B
:1044B000104A184607F06CFC08E00F480AF00AF9A9
:1044C00007F006FC02E000BF00E000BF00BF0837B5
:1044D000BD4680BDF0190108AE070020AF070020DF
:1044E000141A01082C1A0108381A0108AC07002018
:1044F000AD070020441A0108481A010880B500AF32
:10450000084B1B781A4608494FF6626006F0C6F859
:104510001522002104480AF0DDF9024B00221A702E
:1045200000BF80BDC5070020B007002080B487B061
:1045300000AF786039604FF6FF73FB8200233B6168
:1045400027E03B697A6813441B787B81FA8A7B8970
:104550005340FB820823FB6015E0FB8A03F0010354
:10456000002B0AD0FB8A5B08FB82FB8A83F4BF43E3
:1045700083F07E03DB43FB8202E0FB8A5B08FB8265
:10458000FB68013BFB60FB68002BE6D13B69013314
:104590003B613A693B689A42D3DBFB8A18461C3779
:1045A000BD465DF8047B70472DE9F04184B000AF53
:1045B0006B4698462D4B1B78062B01D800234FE005
:1045C0002A4B1B789E1E731EFB6032460023144646
:1045D0001D464FF000024FF00003EB0043EA547316
:1045E000E20032460023104619464FF000024FF019
:1045F0000003CB0043EA5073C20033460733DB08A5
:10460000DB00ADEB030D6B460033BB60174B1B7833
:10461000023B1A461649B8680AF0DBF9134B1B78BF
:10462000023B1946B868FFF781FF0346FB80FB8811
:104630001B0A9BB27B71FB883B710C4B1B78023BC6
:104640000B4AD35C3A799A4209D1084B1B78013B5B
:10465000074AD35C7A799A4201D1012300E0002312
:10466000C54618461037BD46BDE8F081C507002095
:10467000B007002080B500AF184B1B785A1CD1B290
:10468000164A11701A46164B1978164B9954144B4A
:104690001B780A2B08D1134B1B78FE2B04D000216A
:1046A000202009F069F911E0FFF77EFF0346012B96
:1046B00004D10021202009F05FF907E0074B1B78A7
:1046C000132B03D90021202009F056F9064B0122B3
:1046D00003490020FEF7ACF800BF80BDC5070020ED
:1046E0004A070020B00700207546000880B582B058
:1046F00002AF0020FEF787F8012300930123402238
:104700000649074808F0D6FB064B0122064900205F
:10471000FEF78EF800BFBD4680BD00BF6C070020CD
:104720004C070020754600084A07002080B483B07B
:1047300000AF7860064BD3F8D42005497B6813435B
:10474000C1F8D43000BF0C37BD465DF8047B70471C
:104750000008005880B483B000AF7860054B1A6A37
:1047600004497B6813430B6200BF0C37BD465DF8FC
:10477000047B70470008005880B400AF054BDB682D
:10478000044A43F40043D36000BFBD465DF8047B98
:10479000704700BF0004005880B485B000AF786057
:1047A0004FF0B0431A6D4FF0B0417B6813430B6577
:1047B0004FF0B0431A6D7B681340FB60FB6800BF8D
:1047C0001437BD465DF8047B704780B485B000AFF8
:1047D00078604FF0B043D3F850214FF0B0417B6880
:1047E0001343C1F850314FF0B043D3F850217B68E8
:1047F0001340FB60FB6800BF1437BD465DF8047BC7
:10480000704780B483B000AF78607B681B6843F466
:1048100080327B681A6000BF0C37BD465DF8047BB0
:10482000704780B483B000AF78607B681B6843F04A
:1048300001027B681A6000BF0C37BD465DF8047B3F
:10484000704780B483B000AF786039607B685A6885
:104850003B681B04DB431A407B685A6000BF0C377F
:10486000BD465DF8047B704780B483B000AF7860CC
:1048700039607B685A683B681B041A437B685A603E
:1048800000BF0C37BD465DF8047B704780B483B031
:1048900000AF786039607B685A683B68DB431A4038
:1048A0007B685A6000BF0C37BD465DF8047B7047DB
:1048B00080B483B000AF786039607B683A689A60F2
:1048C00000BF0C37BD465DF8047B704780B483B0F1
:1048D00000AF786039603B681A047B689A6000BF5B
:1048E0000C37BD465DF8047B704780B483B000AFE1
:1048F000786039607B68DA683B6813403A689A42AE
:1049000001D1012300E0002318460C37BD465DF8B5
:10491000047B704780B483B000AF786039607B68F7
:10492000DA693B6813403A689A4201D1012300E0FA
:10493000002318460C37BD465DF8047B7047000025
:1049400080B500AF02211848FFF7E4FF0346002BB3
:1049500008D0154B5B6803F00203002B02D100F076
:10496000D5F81EE001211048FFF7D4FF0346002BC5
:1049700008D00D4B5B6803F00103002B02D100F05F
:1049800089F80EE008210848FFF7C4FF0346002B12
:1049900008D0054B5B6803F00803002B02D100F040
:1049A00001F900BF00BF80BD000C005880B500AF0A
:1049B00002211848FFF799FF0346002B08D1154B39
:1049C0005B6803F40033002B02D100F093F81EE083
:1049D00008211048FFF789FF0346002B08D10D4B33
:1049E0005B6803F40023002B02D100F0BDF80EE059
:1049F00020210848FFF779FF0346002B08D1054B1B
:104A00005B6803F40013002B02D100F04FF800BFE5
:104A100000BF80BD000C005880B500AF4FF480107F
:104A2000FFF7D3FE4FF40070FFF794FE4FF40070D1
:104A3000FFF77CFE40BF20BFFFF79EFE00BF80BD9A
:104A400080B500AF4FF48010FFF7A6FE0648FFF7D1
:104A5000E8FE0548FFF7D5FE2C2000F0BCFC2D2019
:104A600000F0B9FC00BF80BD000C005880B500AF5D
:104A700001210248FFF70AFF00BF80BD000C00586B
:104A800080B500AF01210248FFF720FF00BF80BDC5
:104A9000000C005880B500AF07F0B8FE01210248B5
:104AA000FFF706FF00BF80BD000C005880B500AFC7
:104AB00020210348FFF7D8FE07F0D8FE00BF80BDD5
:104AC000000C005880B500AF02210248FFF7DEFE5F
:104AD00000BF80BD000C005880B500AF0221044823
:104AE000FFF7F4FE02210248FFF7ABFE00BF80BDD6
:104AF000000C005880B500AF02210348FFF7B4FE58
:104B000007F004FF00BF80BD000C005880B500AF67
:104B100007F012FF02210248FFF7CAFE00BF80BD66
:104B2000000C005880B582B000AF786008210C48B6
:104B3000FFF7DBFE0346002B07D00A4A7B681360B1
:104B400008210748FFF77DFE06E07B6898470821AB
:104B50000348FFF7BBFE00BF0837BD4680BD00BF5E
:104B6000000C0058C807002080B500AF0821064897
:104B7000FFF77AFE054B1B68984708210248FFF7AC
:104B8000A5FE00BF80BD00BF000C0058C807002074
:104B900080B500AF08210248FFF778FE00BF80BD56
:104BA000000C005880B500AF07F06EFF08210248E6
:104BB000FFF77EFE00BF80BD000C0058D458C450E3
:104BC0000433C4188C42F9D3704703600430884220
:104BD000FBD370470C48854600F0B0F90B480C49F0
:104BE0000C4A0023FFF7EDFF0B480C490023FFF7A9
:104BF000EEFF0B480B490023FFF7E9FF09F0C2FE67
:104C0000FDF7A6FFFEE700000000032008000020DB
:104C10000C0200209C24010864020020681B002074
:104C2000E4010320670A0320FEE780B485B000AFEB
:104C300078604FF0B043DA6C4FF0B0417B681343BB
:104C4000CB644FF0B043DA6C7B681340FB60FB68C9
:104C500000BF1437BD465DF8047B704780B588B04F
:104C600000AF0346FB7107F10C0300221A605A6083
:104C70009A60DA601A610220FFF7D7FFFB79124AC7
:104C800032F81330FB6001233B6100237B61022378
:104C9000BB61FB790D4A52F8233007F10C02114633
:104CA000184600F071FFFB79084A52F82300FB799F
:104CB000054A32F813300022194601F0D5F800BF3A
:104CC0002037BD4680BD00BF3020010818000020FD
:104CD00080B582B000AF0346FB71FB79074A52F8FA
:104CE0002300FB79064A32F813300122194601F0FD
:104CF000BBF800BF0837BD4680BD00BF18000020CC
:104D00003020010880B582B000AF0346FB71FB790B
:104D1000074A52F82300FB79064A32F81330002282
:104D2000194601F0A1F800BF0837BD4680BD00BF9D
:104D3000180000203020010880B588B000AF03467D
:104D40000A46FB711346BB7107F10C0300221A607F
:104D50005A609A60DA601A61FB79002B03D1042053
:104D6000FFF763FF0CE0FB79012B03D10820FFF76D
:104D70005CFF05E0FB79022B02D10820FFF755FF0D
:104D8000BB79002B17D1FB79204A32F81330FB6036
:104D900000233B6101237B610223BB61FB791C4A39
:104DA00052F8233007F10C021146184600F0ECFED1
:104DB0000120FCF78FFDBB79012B23D1FB79134A2E
:104DC00032F81330FB6001237B614FF404133B6125
:104DD000FB790F4A52F8233007F10C0211461846AE
:104DE00000F0D2FEFB790B4AD35C5BB200220F21AC
:104DF000184600F0D6FAFB79064AD35C5BB2184637
:104E000000F0E9FA00BF2037BD4680BD3820010818
:104E1000240000204020010880B400AF4FF0B043D0
:104E20001B684FF0B04243F48033136000BFBD46AF
:104E30005DF8047B704780B400AF4FF0B0431B684F
:104E400003F40033B3F5003F01D1012300E0002358
:104E50001846BD465DF8047B7047000080B483B0FF
:104E600000AF78604FF0B0430A4AC3F89C204FF07F
:104E7000B043D3F89C3023F47C527B681B024FF084
:104E8000B0411343C1F89C3000BF0C37BD465DF8FC
:104E9000047B7047FECAFECA80B400AF4FF0B04337
:104EA0001B684FF0B04223F00103136000BFBD4602
:104EB0005DF8047B704780B483B000AF78604FF03A
:104EC000B0439B6823F003024FF0B0417B6813436B
:104ED0008B6000BF0C37BD465DF8047B704780B423
:104EE00000AF4FF0B0439B6803F00C031846BD467B
:104EF0005DF8047B7047000080B483B000AF786039
:104F0000064B1B6823F0070204497B6813430B60C0
:104F100000BF0C37BD465DF8047B70470040005869
:104F200080B400AF044B1B6803F007031846BD466E
:104F30005DF8047B704700BF0040005880B582B028
:104F400000AF1A4BD3F88830184A43F47003C2F804
:104F50008830002007F0C8FE78607B68002B04D002
:104F60007B689B791846FFF779FFFFF755FF012013
:104F7000FFF7C2FF00BFFFF7D3FF0346012BFAD1B3
:104F800000BFFFF758FF0346002BFAD00220FFF7BF
:104F900092FF00BFFFF7A3FF0346082BFAD1FFF7EC
:104FA0007BFF00BF0837BD4680BD00BF00ED00E0BD
:104FB00080B400AF054B5B68044A43F001035360C3
:104FC00000BFBD465DF8047B704700BF002004E0D1
:104FD00080B400AF054B5B68044A43F002035360A2
:104FE00000BFBD465DF8047B704700BF002004E0B1
:104FF00080B582B000AF0023FB710C4B1B680B4ADD
:1050000043F480731360032000F0C0F9002000F027
:105010000FF80346002B02D00123FB7101E0FDF7DE
:10502000F0FFFB7918460837BD4680BD00400058A8
:1050300080B584B000AF78600023FB73174B1B78FA
:10504000002B24D002F09EF80246144B1B78194620
:105050004FF47A73B3FBF1F3B2FBF3F3184600F0AD
:10506000D6F90346002B0FD17B680F2B09D80022FD
:1050700079684FF0FF3000F094F9094A7B681360BB
:1050800007E00123FB7304E00123FB7301E001232C
:10509000FB73FB7B18461037BD4680BD38000020EF
:1050A0003400002080B400AF064B1B781A46064B34
:1050B0001B681344044A136000BFBD465DF8047BBF
:1050C000704700BF38000020CC07002080B400AF3C
:1050D000034B1B681846BD465DF8047B704700BF54
:1050E000CC07002080B400AF034B1B681846BD46B8
:1050F0005DF8047B704700BF3400002080B400AF2F
:10510000034B1B781846BD465DF8047B704700BF13
:105110003800002080B500AFFFF74AFF00BF80BD18
:1051200080B500AFFFF754FF00BF80BD80B485B0ED
:1051300000AF78607B6803F00703FB600C4BDB6813
:10514000BB60BA684FF6FF031340BB60FB681A02EE
:10515000BB68134343F0BF6343F40033BB60044AAE
:10516000BB68D36000BF1437BD465DF8047B704751
:1051700000ED00E080B400AF044BDB681B0A03F0D5
:1051800007031846BD465DF8047B704700ED00E05C
:1051900080B483B000AF0346FB7197F90730002B52
:1051A0000BDBFB7903F01F02074997F907305B0916
:1051B000012000FA02F241F8232000BF0C37BD465F
:1051C0005DF8047B704700BF00E100E080B483B06D
:1051D00000AF0346FB7197F90730002B12DBFB7918
:1051E00003F01F020A4997F907305B09012000FA12
:1051F00002F2203341F82320BFF34F8F00BFBFF3EB
:105200006F8F00BF00BF0C37BD465DF8047B704751
:1052100000E100E080B483B000AF0346FB7197F972
:105220000730002B0CDBFB7903F01F02074997F9CD
:1052300007305B09012000FA02F2403341F82320D5
:1052400000BF0C37BD465DF8047B704700E100E00D
:1052500080B483B000AF0346FB7197F90730002B91
:105260000CDBFB7903F01F02074997F907305B0954
:10527000012000FA02F2603341F8232000BF0C370E
:10528000BD465DF8047B704700E100E080B483B068
:1052900000AF03463960FB7197F90730002B0ADB3A
:1052A0003B68DAB20C4997F907301201D2B20B44CD
:1052B00083F800230AE03B68DAB20849FB7903F07F
:1052C0000F03043B1201D2B20B441A7600BF0C3715
:1052D000BD465DF8047B704700E100E000ED00E0B2
:1052E00080B489B000AFF860B9607A60FB6803F001
:1052F0000703FB61FB69C3F10703042B28BF0423E9
:10530000BB61FB690433062B02D9FB69033B00E058
:1053100000237B614FF0FF32BB6902FA03F3DA43EB
:10532000BB681A407B699A404FF0FF317B6901FAF4
:1053300003F3D9437B680B40134318462437BD461B
:105340005DF8047B7047000080B582B000AF7860E4
:105350007B68013BB3F1807F01D301230FE00A4A50
:105360007B68013B53600F214FF0FF30FFF78EFF4A
:10537000054B00229A60044B07221A60002318464E
:105380000837BD4680BD00BF10E000E080B582B0A8
:1053900000AF78607868FFF7C9FE00BF0837BD46E8
:1053A00080BD80B586B000AF0346B9607A60FB73FC
:1053B000FFF7E0FE78617A68B9687869FFF790FFD7
:1053C000024697F90F3011461846FFF75FFF00BFFE
:1053D0001837BD4680BD80B582B000AF0346FB7173
:1053E00097F907301846FFF7D3FE00BF0837BD46D0
:1053F00080BD80B582B000AF0346FB7197F90730DE
:105400001846FFF7E3FE00BF0837BD4680BD80B5F4
:1054100082B000AF78607868FFF796FF03461846C1
:105420000837BD4680BD80B582B000AF0346FB7132
:1054300097F907301846FFF7EDFE00BF0837BD4665
:1054400080BD80B582B000AF0346FB7197F907308D
:105450001846FFF7FDFE00BF0837BD4680BD0000BF
:1054600080B584B000AF78607B68002B01D1012348
:105470008EE07B681B681A46474B9A420FD87B68C0
:105480001B681A46454B1344454AA2FB03231B09DC
:105490009A007B685A647B68424A1A640EE07B6813
:1054A0001B681A46404B13443D4AA2FB03231B09C9
:1054B0009A007B685A647B683C4A1A647B680222C3
:1054C00083F825207B681B681B68FB60FB6823F45E
:1054D000FF4323F07003FB607B689A687B68DB689E
:1054E0001A437B681B691A437B685B691A437B68B4
:1054F0009B691A437B68DB691A437B681B6A134309
:10550000FA681343FB607B681B68FA681A60786866
:1055100000F074FA7B689B68B3F5804F02D17B681A
:1055200000225A607B685A687B689B6C02F03F02DD
:105530001A607B68DB6C7A68126D5A607B685B6806
:10554000002B10D07B685B68042B0CD8786800F0C7
:1055500093FA7B685B6D00221A607B689B6D7A68AA
:10556000D26D5A6008E07B6800225A657B68002291
:105570009A657B680022DA657B680022DA637B68C3
:10558000012283F825207B68002283F82420002351
:1055900018461037BD4680BD07040240F8FFFDBF26
:1055A000CDCCCCCC00000240F8FBFDBF0004024093
:1055B00080B586B000AFF860B9607A603B600023C8
:1055C000FB75FB6893F82430012B01D1022366E0C0
:1055D000FB68012283F82420FB6893F82530DBB2B6
:1055E000012B55D1FB68022283F82520FB6800229D
:1055F000DA63FB681B681A68FB681B6822F001020B
:105600001A603B687A68B968F86800F0B9F9FB6815
:105610001B6B002B08D0FB681B681A68FB681B68B3
:1056200042F00E021A600FE0FB681B681A68FB6804
:105630001B6822F004021A60FB681B681A68FB688A
:105640001B6842F00A021A60FB689B6C1B6803F43B
:105650008033002B07D0FB689B6C1A68FB689B6C3F
:1056600042F480721A60FB685B6D002B07D0FB6808
:105670005B6D1A68FB685B6D42F480721A60FB68B0
:105680001B681A68FB681B6842F001021A6005E09B
:10569000FB68002283F824200223FB75FB7D18465B
:1056A0001837BD4680BD80B483B000AF78607B689A
:1056B000002B01D101234FE07B6893F82530DBB24A
:1056C000022B08D07B680422DA637B68002283F80F
:1056D0002420012340E07B681B681A687B681B68F4
:1056E00022F00E021A607B689B6C1A687B689B6CC8
:1056F00022F480721A607B681B681A687B681B68DA
:1057000022F001021A607B685B6C03F01C027B686C
:105710001B6C012101FA02F25A607B68DB6C7A682B
:10572000126D5A607B685B6D002B0CD07B685B6DE3
:105730001A687B685B6D22F480721A607B689B6DCF
:105740007A68D26D5A607B68012283F825207B68D5
:10575000002283F82420002318460C37BD465DF84C
:10576000047B704780B584B000AF78600023FB7382
:105770007B6893F82530DBB2022B05D07B680422CE
:10578000DA630123FB7347E07B681B681A687B6858
:105790001B6822F00E021A607B681B681A687B681F
:1057A0001B6822F001021A607B689B6C1A687B6898
:1057B0009B6C22F480721A607B685B6C03F01C02A5
:1057C0007B681B6C012101FA02F25A607B68DB6C7A
:1057D0007A68126D5A607B685B6D002B0CD07B6819
:1057E0005B6D1A687B685B6D22F480721A607B685F
:1057F0009B6D7A68D26D5A607B68012283F8252000
:105800007B68002283F824207B689B6B002B03D0ED
:105810007B689B6B78689847FB7B18461037BD46C2
:1058200080BD80B584B000AF78607B681B6C1B685E
:10583000FB607B681B681B68BB607B685B6C03F06C
:105840001C0304229A40FB681340002B26D0BB683F
:1058500003F00403002B21D07B681B681B6803F056
:105860002003002B07D17B681B681A687B681B68C4
:1058700022F004021A607B685B6C03F01C027B68F8
:105880001B6C042101FA02F25A607B681B6B002B2F
:1058900071D07B681B6B786898476CE07B685B6CA9
:1058A00003F01C0302229A40FB681340002B2ED009
:1058B000BB6803F00203002B29D07B681B681B68C0
:1058C00003F02003002B0BD17B681B681A687B68F0
:1058D0001B6822F00A021A607B68012283F82520E7
:1058E0007B685B6C03F01C027B681B6C022101FA75
:1058F00002F25A607B68002283F824207B68DB6A0E
:10590000002B38D07B68DB6A7868984733E07B6887
:105910005B6C03F01C0308229A40FB681340002BC9
:105920002AD0BB6803F00803002B25D07B681B68D6
:105930001A687B681B6822F00E021A607B685B6C39
:1059400003F01C027B681B6C012101FA02F25A6011
:105950007B680122DA637B68012283F825207B685B
:10596000002283F824207B685B6B002B04D07B68CB
:105970005B6B7868984700BF00BF1037BD4680BD9D
:1059800080B485B000AFF860B9607A603B60FB68B6
:10599000DB6CFA68126D5A60FB685B6D002B04D0FB
:1059A000FB689B6DFA68D26D5A60FB685B6C03F014
:1059B0001C02FB681B6C012101FA02F25A60FB68B1
:1059C0001B683A685A60FB689B68102B08D1FB681B
:1059D0001B687A689A60FB681B68BA68DA6007E03F
:1059E000FB681B68BA689A60FB681B687A68DA60B3
:1059F00000BF1437BD465DF8047B704780B485B0A6
:105A000000AF78607B681B681A46174B9A420AD829
:105A10007B685B6C9B089B0003F1804303F50233BA
:105A20007A68936407E07B685B6C9B089A000F4B75
:105A300013447A6893647B681B68DBB2083B0C4AAA
:105A4000A2FB03231B09FB607B680A4ADA64FB683C
:105A500003F01F0301229A407B681A6500BF1437C8
:105A6000BD465DF8047B7047070402401C080240F5
:105A7000CDCCCCCC8008024080B485B000AF78603B
:105A80007B685B6803F03F03FB60FA680B4B1344D1
:105A90009B001A467B685A657B68094A9A65FB68D1
:105AA000013B03F0030301229A407B68DA6500BFE3
:105AB0001437BD465DF8047B704700BF3F8200107D
:105AC0004009024080B483B000AF786039607B68E1
:105AD00093F82530DBB2012B2BD17B6893F824306F
